S01300005450315F477275706F32302E737265636E
S11300000C9434000C9451000C9451000C94510045
S11300100C9451000C9451000C9451000C94510018
S11300200C9451000C9451000C9451000C94510008
S11300300C9451000C9451000C9451000C945100F8
S11300400C9451000C9451000C9451000C945100E8
S11300500C9451000C9451000C9451000C945100D8
S11300600C9451000C94510011241FBECFEFD8E022
S1130070DEBFCDBF11E0A0E0B1E0E4ECFFE002C0E0
S113008005900D92A430B107D9F721E0A4E0B1E0C6
S113009001C01D92A830B207E1F70E94C5070C9475
S11300A0E0070C940000289A000000000000000003
S11300B0289800000000000000000000000000007C
S11300C000000000000000000000289A000000006A
S11300D0000000002898000000000000000000005C
S11300E00000000000000000000000000000289A4A
S11300F0000000000000000028980000000000003C
S113010000000000000000000000000000000000EB
S11301100000289A00000000000000002898000059
S113012000000000000000000000000000000000CB
S1130130000000000000289A0000000000000000F9
S113014028980000000000000000000000000000EB
S113015000000000000000000000289A00000000D9
S113016000000000289800000000000000000000CB
S11301700000000000000000000000000000289AB9
S113018000000000000000002898000000000000AB
S1130190000000000000000000000000000000005B
S11301A00000289A000000000000000028980000C9
S11301B0000000000000000000000000000000003B
S11301C0000000000000289A000000000000000069
S11301D0000000000000000000000000000028985B
S11301E000000000000000000000289A0000000049
S11301F000000000000000000000000000000000FB
S11302000000289800000000000000000000289A68
S113021000000000000000000000000000000000DA
S1130220000000000000289800000000000000000A
S11302300000289A000000000000000000000000F8
S113024000000000000000000000289800000000EA
S1130250000000000000289A0000000000000000D8
S113026000000000000000000000000000002898CA
S113027000000000000000000000289A00000000B8
S1130280000000000000000000000000000000006A
S11302900000289800000000000000000000289AD8
S11302A0000000000000000000000000000000004A
S11302B0000000000000289800000000000000007A
S11302C00000289A00000000000000000000000068
S11302D0000000000000000000002898000000005A
S11302E0000000000000289A000000000000000048
S11302F0289800000000000000000000000000003A
S113030000000000000000000000289A0000000027
S11303100000000028980000000000000000000019
S11303200000000000000000000000000000289A07
S113033000000000000000002898000000000000F9
S113034000000000000000000000000000000000A9
S11303500000289A00000000000000002898000017
S11303600000000000000000000000000000000089
S1130370000000000000289A0000000000000000B7
S113038028980000000000000000000000000000A9
S113039000000000000000000000289A0000000097
S11303A00000000028980000000000000000000089
S11303B00000000000000000000000000000289A77
S11303C00000000000000000289800000000000069
S11303D00000000000000000000000000000000019
S11303E00000289A00000000000000002898000087
S11303F000000000000000000000000000000000F9
S11304000000000000000895289A00000000000089
S11304100000289800000000000000000000000018
S1130420000000000000000000000000289A000006
S113043000000000000028980000000000000000F8
S113044000000000000000000000000000000000A8
S1130450289A000000000000000028980000000016
S11304600000000000000000000000000000000088
S113047000000000289A00000000000000002898F6
S11304800000000000000000000000000000000068
S11304900000000000000000289A00000000000096
S11304A00000289800000000000000000000000088
S11304B0000000000000000000000000289A000076
S11304C00000000000002898000000000000000068
S11304D00000000000000000000000000000000018
S11304E0289A000000000000000028980000000086
S11304F000000000000000000000000000000000F8
S113050000000000289A0000000000000000289865
S113051000000000000000000000000000000000D7
S11305200000000000000000289A00000000000005
S113053000002898000000000000000000000000F7
S1130540000000000000000000000000289A0000E5
S113055000000000000028980000000000000000D7
S11305600000000000000000000000000000000087
S1130570289A0000000000000000289800000000F5
S11305800000000000000000000000000000000067
S113059000000000289A00000000000000002898D5
S11305A00000000000000000000000000000000047
S11305B00000000000000000289A00000000000075
S11305C00000289800000000000000000000000067
S11305D0000000000000000000000000289A000055
S11305E00000000000002898000000000000000047
S11305F000000000000000000000000000000000F7
S1130600289A000000000000000028980000000064
S113061000000000000000000000000000000000D6
S113062000000000289A0000000000000000289844
S113063000000000000000000000000000000000B6
S11306400000000000000000289A000000000000E4
S11306500000000000000000000000000000000096
S1130660289800000000000000000000289A000004
S11306700000000000000000000000000000000076
S113068000000000289800000000000000000000A6
S1130690289A000000000000000000000000000094
S11306A00000000000000000289800000000000086
S11306B000000000289A0000000000000000000074
S11306C00000000000000000000000002898000066
S11306D00000000000000000289A00000000000054
S11306E00000000000000000000000000000000006
S11306F0289800000000000000000000289A000074
S113070000000000000000000000000000000000E5
S11307100000000028980000000000000000000015
S1130720289A000000000000000000000000000003
S113073000000000000000002898000000000000F5
S113074000000000289A00000000000000000000E3
S113075000000000000000000000000028980000D5
S113076000000000000000000895289A0000000026
S113077000000000289800000000000000000000B5
S11307800000000000000000000000000000289AA3
S11307900000000000000000289800000000000095
S11307A00000000000000000000000000000000045
S11307B00000289A000000000000000028980000B3
S11307C00000000000000000000000000000000025
S11307D0000000000000289A000000000000000053
S11307E02898000000000000000000000000000045
S11307F000000000000000000000289A0000000033
S11308000000000028980000000000000000000024
S11308100000000000000000000000000000289A12
S11308200000000000000000289800000000000004
S113083000000000000000000000000000000000B4
S11308400000289A00000000000000002898000022
S11308500000000000000000000000000000000094
S1130860000000000000289A0000000000000000C2
S113087028980000000000000000000000000000B4
S113088000000000000000000000289A00000000A2
S11308900000000028980000000000000000000094
S11308A00000000000000000000000000000289A82
S11308B00000000000000000289800000000000074
S11308C00000000000000000000000000000000024
S11308D00000289A00000000000000002898000092
S11308E00000000000000000000000000000000004
S11308F0000000000000289A000000000000000032
S11309002898000000000000000000000000000023
S113091000000000000000000000289A0000000011
S11309200000000028980000000000000000000003
S11309300000000000000000000000000000289AF1
S113094000000000000000002898000000000000E3
S11309500000000000000000000000000000000093
S11309600000289A00000000000000002898000001
S11309700000000000000000000000000000000073
S1130980000000000000289A0000000000000000A1
S11309902898000000000000000000000000000093
S11309A000000000000000000000289A0000000081
S11309B00000000028980000000000000000000073
S11309C00000000000000000000000000000289A61
S11309D00000000000000000289800000000000053
S11309E00000000000000000000000000000000003
S11309F00000289A00000000000000002898000071
S1130A0000000000000000000000000000000000E2
S1130A10000000000000289A000000000000000010
S1130A202898000000000000000000000000000002
S1130A3000000000000000000000289A00000000F0
S1130A4000000000289800000000000000000000E2
S1130A500000000000000000000000000000289AD0
S1130A6000000000000000002898000000000000C2
S1130A700000000000000000000000000000000072
S1130A800000289A000000000000000028980000E0
S1130A900000000000000000000000000000000052
S1130AA0000000000000289A000000000000000080
S1130AB02898000000000000000000000000000072
S1130AC00000000000000000000008958FEF8AB9C4
S1130AD0209A87B18C7F87B988B1836088B90895DB
S1130AE086B181709091020191110EC0882361F04A
S1130AF09091070121E0911120E0209307019111C9
S1130B0003C09FEF909303018093020196B181E0AB
S1130B10292F227091FF80E09091010191110CC066
S1130B20222351F091E020910501211190E090934E
S1130B30050197E09093000180930101089581E0FD
S1130B4090E00090060102C0880F991F0A94E2F712
S1130B508BB99091070180910601911109C08F5FB3
S1130B6088301CF4809306010895109206010895BC
S1130B7090910301890F80930601873014F08FEF61
S1130B8003C018161CF081E0809303010895CF93ED
S1130B90DF938091050181112BC0809104018111A3
S1130BA014C00E94B5030E9453000E94B5030E9422
S1130BB053000E94B5030E9453000E94B5030E9493
S1130BC0530081E080930401DDC10E9404020E946D
S1130BD0B5030E9404020E94B5030E9404020E940D
S1130BE0B5030E9404020E94B50310920401CAC115
S1130BF0C0E0D0E080910001082E000C990BC817CA
S1130C00D90709F0B1C1289A0000000000000000D3
S1130C100000000000000000000000000000289810
S1130C2000000000000000000000289A00000000FE
S1130C3000000000000000000000000000000000B0
S1130C400000289800000000000000000000289A1E
S1130C500000000000000000000000000000000090
S1130C6000000000000028980000000000000000C0
S1130C700000289A000000000000000000000000AE
S1130C8000000000000000000000289800000000A0
S1130C90000000000000289A00000000000000008E
S1130CA00000000000000000000000000000289880
S1130CB000000000000000000000289A000000006E
S1130CC00000000000000000000000000000000020
S1130CD00000289800000000000000000000289A8E
S1130CE00000000000000000000000000000000000
S1130CF00000000000002898000000000000000030
S1130D000000289A0000000000000000000000001D
S1130D10000000000000000000002898000000000F
S1130D20000000000000289A0000000000000000FD
S1130D3028980000000000000000000000000000EF
S1130D4000000000000000000000289A00000000DD
S1130D5000000000289800000000000000000000CF
S1130D600000000000000000000000000000289ABD
S1130D7000000000000000002898000000000000AF
S1130D80000000000000000000000000000000005F
S1130D900000289A000000000000000028980000CD
S1130DA0000000000000000000000000000000003F
S1130DB0000000000000289A00000000000000006D
S1130DC0289800000000000000000000000000005F
S1130DD000000000000000000000289A000000004D
S1130DE0000000002898000000000000000000003F
S1130DF00000000000000000000000000000289A2D
S1130E00000000000000000028980000000000001E
S1130E1000000000000000000000000000000000CE
S1130E200000289A0000000000000000289800003C
S1130E3000000000000000000000000000000000AE
S1130E40000000000000289A0000000000000000DC
S1130E5028980000000000000000000000000000CE
S1130E6000000000000000000000289A00000000BC
S1130E7000000000289800000000000000000000AE
S1130E800000000000000000000000000000289A9C
S1130E90000000000000000028980000000000008E
S1130EA0000000000000000000000000000000003E
S1130EB00000289A000000000000000028980000AC
S1130EC0000000000000000000000000000000001E
S1130ED0000000000000289A00000000000000004C
S1130EE0289800000000000000000000000000003E
S1130EF000000000000000000000289A000000002C
S1130F00000000002898000000000000000000001D
S1130F100000000000000000000000000000289A0B
S1130F2000000000000000002898000000000000FD
S1130F3000000000000000000000000000000000AD
S1130F400000289A0000000000000000289800001B
S1130F50000000000000000000000000000000008D
S1130F6000000000000002C00E94B5032196C830B2
S1130F70D10509F03FCE80910001815087FD87E0C3
S1130F8080930001DF91CF9108950E946605D1E01E
S1130F90C1E00E947005CA3021F40E949F05C1E09F
S1130FA001C0CF5FDF3021F40E94C705D1E001C04A
S1130FB0DF5F8FE39CE90197F1F700C00000E9CF00
S1070FC0F894FFCFCF
S1070FC4070101011B
S9030000FC
