:100000000C9434000C9451000C9451000C94510049
:100010000C9451000C9451000C9451000C9451001C
:100020000C9451000C9451000C9451000C9451000C
:100030000C9451000C9451000C9451000C945100FC
:100040000C9451000C9451000C9451000C945100EC
:100050000C9451000C9451000C9451000C945100DC
:100060000C9451000C94510011241FBECFEFD8E026
:10007000DEBFCDBF11E0A0E0B1E0E4EDFAE102C0E7
:1000800005900D92A430B107D9F721E0A4E0B1E0CA
:1000900001C01D92A830B207E1F70E944D0D0C94EB
:1000A000680D0C94000085B1816085B900000000E6
:1000B0000000000085B18E7F85B9000000000000BF
:1000C0000000000000000000000000000000000030
:1000D0000000089585B1816085B90000000000002E
:1000E0000000000000000000000000000000000010
:1000F00085B18E7F85B9000000000000000000007F
:10010000089585B1816085B90000000000000000FD
:1001100085B18E7F85B9000000000000000000005E
:10012000000000000000000000000000000085B199
:10013000816085B9000000000000000085B18E7F5D
:1001400085B9000000000000000000000000000071
:100150000000000000000000000085B1816085B94A
:10016000000000000000000085B18E7F85B900000E
:10017000000000000000000000000000000000007F
:1001800000000000000085B1816085B9000000001A
:100190000000000085B18E7F85B9000000000000DE
:1001A000000000000000000000000000000000004F
:1001B000000085B1816085B90000000000000000EA
:1001C00085B18E7F85B900000000000000000000AE
:1001D000000000000000000000000000000085B1E9
:1001E000816085B9000000000000000085B18E7FAD
:1001F00085B90000000000000000000000000000C1
:100200000000000000000000000085B1816085B999
:10021000000000000000000085B18E7F85B900005D
:1002200000000000000000000000000000000000CE
:1002300000000000000085B1816085B90000000069
:100240000000000085B18E7F85B90000000000002D
:10025000000000000000000000000000000000009E
:10026000000085B1816085B9000000000000000039
:1002700085B18E7F85B900000000000000000000FD
:10028000000000000000000000000000000085B138
:10029000816085B9000000000000000085B18E7FFC
:1002A00085B9000000000000000000000000000010
:1002B0000000000000000000000085B1816085B9E9
:1002C000000000000000000085B18E7F85B90000AD
:1002D000000000000000000000000000000000001E
:1002E00000000000000085B1816085B900000000B9
:1002F0000000000085B18E7F85B90000000000007D
:1003000000000000000000000000000000000000ED
:10031000000085B1816085B9000000000000000088
:1003200085B18E7F85B9000000000000000000004C
:10033000000000000000000000000000000085B187
:10034000816085B9000000000000000085B18E7F4B
:1003500085B900000000000000000000000000005F
:100360000000000000000000000085B1816085B938
:10037000000000000000000085B18E7F85B90000FC
:10038000000000000000000000000000000000006D
:1003900000000000000085B1816085B90000000008
:1003A0000000000085B18E7F85B9000000000000CC
:1003B000000000000000000000000000000000003D
:1003C000000085B1816085B90000000000000000D8
:1003D00085B18E7F85B9000000000000000000009C
:1003E000000000000000000000000000000085B1D7
:1003F000816085B9000000000000000085B18E7F9B
:1004000085B90000000000000000000000000000AE
:100410000000000000000000000085B1816085B987
:10042000000000000000000085B18E7F85B900004B
:1004300000000000000000000000000000000000BC
:1004400000000000000085B1816085B90000000057
:100450000000000085B18E7F85B90000000000001B
:10046000000000000000000000000000000000008C
:10047000000085B1816085B9000000000000000027
:1004800085B18E7F85B900000000000000000000EB
:10049000000000000000000000000000000085B126
:1004A000816085B9000000000000000085B18E7FEA
:1004B00085B90000000000000000000000000000FE
:1004C0000000000000000000000085B1816085B9D7
:1004D000000000000000000085B18E7F85B900009B
:1004E000000000000000000000000000000000000C
:1004F00000000000000085B1816085B900000000A7
:100500000000000085B18E7F85B90000000000006A
:1005100000000000000000000000000000000000DB
:10052000000008958FEF8AB984B1816084B987B1E2
:100530008C7F87B988B1836088B9089596B181E0CE
:10054000292F217090FF80E09091020191110EC03F
:10055000222361F091E020910701211190E0909316
:100560000701913019F49FEF9093030180930201EA
:1005700096B181E0292F227091FF80E090910101D6
:1005800091110CC0222351F091E02091050121111D
:1005900090E09093050197E0909300018093010112
:1005A000089581E090E00090060102C0880F991F35
:1005B0000A94E2F78BB98091070181110AC08091FA
:1005C00006018F5F809306018830ACF0109206011F
:1005D00008959091060180910301890F809306018F
:1005E000873024F08FEF80930301089518161CF0D4
:1005F00081E08093030108958091050181110C949D
:100600003E0D809104018111C0C20E9481000E94B0
:1006100053000E9453000E9453000E9453000E9406
:1006200053000E9453000E9453000E94530085B162
:10063000816085B90000000000000000000000009B
:100640000000000000000000000085B18E7F85B929
:100650000000000000000000000085B1816085B945
:10066000000000000000000000000000000000008A
:1006700000000000000085B18E7F85B900000000F9
:1006800000000000000085B1816085B90000000015
:10069000000000000000000000000000000000005A
:1006A000000085B18E7F85B90000000000000000C9
:1006B000000085B1816085B90000000000000000E5
:1006C000000000000000000000000000000085B1F4
:1006D0008E7F85B90000000000000000000085B199
:1006E000816085B9000000000000000000000000EB
:1006F0000000000000000000000085B18E7F85B979
:100700000000000000000000000085B1816085B994
:1007100000000000000000000000000000000000D9
:1007200000000000000085B18E7F85B90000000048
:1007300000000000000085B1816085B90000000064
:1007400000000000000000000000000000000000A9
:10075000000085B18E7F85B9000000000000000018
:10076000000085B1816085B9000000000000000034
:10077000000000000000000000000000000085B143
:100780008E7F85B9000000000000000000000E947C
:1007900053000E9453000E9453000E9453000E9485
:1007A00053000E9453000E9453000E9453000E9475
:1007B00081000E9453000E9453000E9453000E9437
:1007C00053000E9453000E9453000E9453000E9455
:1007D00053000E946A000E946A000E946A000E9400
:1007E0006A000E946A000E946A000E946A0085B145
:1007F000816085B9000000000000000000000000DA
:100800000000000000000000000085B18E7F85B967
:10081000000000000000000000000E9453000E9441
:1008200053000E9453000E9453000E9453000E94F4
:1008300053000E9453000E9453000E9481000E94B6
:1008400053000E9453000E9453000E9453000E94D4
:1008500053000E9453000E9453000E94530085B130
:10086000816085B900000000000000000000000069
:100870000000000000000000000085B18E7F85B9F7
:100880000000000000000000000085B1816085B913
:100890000000000000000000000000000000000058
:1008A00000000000000085B18E7F85B900000000C7
:1008B00000000000000085B1816085B900000000E3
:1008C0000000000000000000000000000000000028
:1008D000000085B18E7F85B9000000000000000097
:1008E000000085B1816085B90000000000000000B3
:1008F000000000000000000000000000000085B1C2
:100900008E7F85B90000000000000000000085B166
:10091000816085B9000000000000000000000000B8
:100920000000000000000000000085B18E7F85B946
:100930000000000000000000000085B1816085B962
:1009400000000000000000000000000000000000A7
:1009500000000000000085B18E7F85B90000000016
:1009600000000000000085B1816085B90000000032
:100970000000000000000000000000000000000077
:10098000000085B18E7F85B90000000000000000E6
:10099000000085B1816085B9000000000000000002
:1009A000000000000000000000000000000085B111
:1009B0008E7F85B9000000000000000000000E944A
:1009C00053000E9453000E9453000E9453000E9453
:1009D00053000E9453000E9453000E9453000E9443
:1009E00081000E9453000E9453000E9453000E9405
:1009F00053000E9453000E9453000E9453000E9423
:100A0000530085B1816085B900000000000000003E
:100A1000000000000000000000000000000085B1A0
:100A20008E7F85B90000000000000000000085B145
:100A3000816085B900000000000000000000000097
:100A40000000000000000000000085B18E7F85B925
:100A50000000000000000000000085B1816085B941
:100A60000000000000000000000000000000000086
:100A700000000000000085B18E7F85B900000000F5
:100A800000000000000085B1816085B90000000011
:100A90000000000000000000000000000000000056
:100AA000000085B18E7F85B90000000000000000C5
:100AB000000085B1816085B90000000000000000E1
:100AC000000000000000000000000000000085B1F0
:100AD0008E7F85B90000000000000000000085B195
:100AE000816085B9000000000000000000000000E7
:100AF0000000000000000000000085B18E7F85B975
:100B00000000000000000000000085B1816085B990
:100B100000000000000000000000000000000000D5
:100B200000000000000085B18E7F85B90000000044
:100B300000000000000085B1816085B90000000060
:100B400000000000000000000000000000000000A5
:100B5000000085B18E7F85B9000000000000000014
:100B600000000E9453000E9453000E9453000E9404
:100B700053000E9453000E9453000E9453000E94A1
:100B8000530081E08093040108950E9453000E9465
:100B900053000E9453000E9453000E9453000E9481
:100BA00053000E9453000E9453000E9453000E9471
:100BB00053000E9453000E9453000E9453000E9461
:100BC00053000E9453000E94530085B1816085B993
:100BD0000000000000000000000000000000000015
:100BE00000000000000085B18E7F85B90000000084
:100BF00000000000000085B1816085B900000000A0
:100C000000000000000000000000000000000000E4
:100C1000000085B18E7F85B9000000000000000053
:100C2000000085B1816085B900000000000000006F
:100C3000000000000000000000000000000085B17E
:100C40008E7F85B90000000000000000000085B123
:100C5000816085B900000000000000000000000075
:100C60000000000000000000000085B18E7F85B903
:100C70000000000000000000000085B1816085B91F
:100C80000000000000000000000000000000000064
:100C900000000000000085B18E7F85B900000000D3
:100CA00000000000000085B1816085B900000000EF
:100CB0000000000000000000000000000000000034
:100CC000000085B18E7F85B90000000000000000A3
:100CD000000085B1816085B90000000000000000BF
:100CE000000000000000000000000000000085B1CE
:100CF0008E7F85B90000000000000000000085B173
:100D0000816085B9000000000000000000000000C4
:100D10000000000000000000000085B18E7F85B952
:100D2000000000000000000000000E9481000E94FE
:100D300053000E9453000E9453000E9453000E94DF
:100D400053000E9453000E9453000E9453000E94CF
:100D500053000E9453000E9453000E9453000E94BF
:100D600053000E9453000E9453000E94530085B11B
:100D7000816085B900000000000000000000000054
:100D80000000000000000000000085B18E7F85B9E2
:100D90000000000000000000000085B1816085B9FE
:100DA0000000000000000000000000000000000043
:100DB00000000000000085B18E7F85B900000000B2
:100DC00000000000000085B1816085B900000000CE
:100DD0000000000000000000000000000000000013
:100DE000000085B18E7F85B9000000000000000082
:100DF000000085B1816085B900000000000000009E
:100E0000000000000000000000000000000085B1AC
:100E10008E7F85B90000000000000000000085B151
:100E2000816085B9000000000000000000000000A3
:100E30000000000000000000000085B18E7F85B931
:100E40000000000000000000000085B1816085B94D
:100E50000000000000000000000000000000000092
:100E600000000000000085B18E7F85B90000000001
:100E700000000000000085B1816085B9000000001D
:100E80000000000000000000000000000000000062
:100E9000000085B18E7F85B90000000000000000D1
:100EA000000085B1816085B90000000000000000ED
:100EB000000000000000000000000000000085B1FC
:100EC0008E7F85B9000000000000000000000E9435
:100ED00081000E9453000E9453000E9453000E9410
:100EE00053000E9453000E9453000E9453000E942E
:100EF00053000E9453000E9453000E9453000E941E
:100F000053000E9453000E9453000E9453000E940D
:100F1000530085B1816085B9000000000000000029
:100F2000000000000000000000000000000085B18B
:100F30008E7F85B90000000000000000000085B130
:100F4000816085B900000000000000000000000082
:100F50000000000000000000000085B18E7F85B910
:100F60000000000000000000000085B1816085B92C
:100F70000000000000000000000000000000000071
:100F800000000000000085B18E7F85B900000000E0
:100F900000000000000085B1816085B900000000FC
:100FA0000000000000000000000000000000000041
:100FB000000085B18E7F85B90000000000000000B0
:100FC000000085B1816085B90000000000000000CC
:100FD000000000000000000000000000000085B1DB
:100FE0008E7F85B90000000000000000000085B180
:100FF000816085B9000000000000000000000000D2
:101000000000000000000000000085B18E7F85B95F
:101010000000000000000000000085B1816085B97B
:1010200000000000000000000000000000000000C0
:1010300000000000000085B18E7F85B9000000002F
:1010400000000000000085B1816085B9000000004B
:101050000000000000000000000000000000000090
:10106000000085B18E7F85B90000000000000000FF
:1010700000000E9481000E9453000E9453000E94C1
:1010800053000E9453000E9453000E9453000E948C
:1010900053000E9453000E9453000E9453000E947C
:1010A00053000E9453000E9453000E9453000E946C
:1010B00053000E94530085B1816085B90000000093
:1010C0000000000000000000000000000000000020
:1010D000000085B18E7F85B900000000000000008F
:1010E000000085B1816085B90000000000000000AB
:1010F000000000000000000000000000000085B1BA
:101100008E7F85B90000000000000000000085B15E
:10111000816085B9000000000000000000000000B0
:101120000000000000000000000085B18E7F85B93E
:101130000000000000000000000085B1816085B95A
:10114000000000000000000000000000000000009F
:1011500000000000000085B18E7F85B9000000000E
:1011600000000000000085B1816085B9000000002A
:10117000000000000000000000000000000000006F
:10118000000085B18E7F85B90000000000000000DE
:10119000000085B1816085B90000000000000000FA
:1011A000000000000000000000000000000085B109
:1011B0008E7F85B90000000000000000000085B1AE
:1011C000816085B900000000000000000000000000
:1011D0000000000000000000000085B18E7F85B98E
:1011E0000000000000000000000085B1816085B9AA
:1011F00000000000000000000000000000000000EF
:1012000000000000000085B18E7F85B9000000005D
:101210000000000000000E94810010920401089567
:10122000482F50E020910001022E000C330B421792
:10123000530709F011C295B1916095B90000000003
:10124000000000000000000000000000000000009E
:10125000000095B19E7F95B90000000000000000DD
:10126000000095B1916095B90000000000000000F9
:10127000000000000000000000000000000095B128
:101280009E7F95B90000000000000000000095B1AD
:10129000916095B90000000000000000000000000F
:1012A0000000000000000000000095B19E7F95B98D
:1012B0000000000000000000000095B1916095B9A9
:1012C000000000000000000000000000000000001E
:1012D00000000000000095B19E7F95B9000000005D
:1012E00000000000000095B1916095B90000000079
:1012F00000000000000000000000000000000000EE
:10130000000095B19E7F95B900000000000000002C
:10131000000095B1916095B9000000000000000048
:10132000000000000000000000000000000095B177
:101330009E7F95B90000000000000000000095B1FC
:10134000916095B90000000000000000000000005E
:101350000000000000000000000095B19E7F95B9DC
:101360000000000000000000000095B1916095B9F8
:10137000000000000000000000000000000000006D
:1013800000000000000095B19E7F95B900000000AC
:1013900000000000000095B1916095B900000000C8
:1013A0000000000095B19E7F95B90000000000008C
:1013B000000000000000000000000000000000002D
:1013C000000095B1916095B9000000000000000098
:1013D00095B19E7F95B9000000000000000000005C
:1013E000000000000000000000000000000095B1B7
:1013F000916095B9000000000000000095B19E7F4B
:1014000095B900000000000000000000000000008E
:101410000000000000000000000095B1916095B947
:10142000000000000000000095B19E7F95B900000B
:1014300000000000000000000000000000000000AC
:1014400000000000000095B1916095B90000000017
:101450000000000095B19E7F95B9000000000000DB
:10146000000000000000000000000000000000007C
:10147000000095B1916095B90000000000000000E7
:1014800095B19E7F95B900000000000000000000AB
:10149000000000000000000000000000000095B106
:1014A000916095B9000000000000000095B19E7F9A
:1014B00095B90000000000000000000000000000DE
:1014C0000000000000000000000095B1916095B997
:1014D000000000000000000095B19E7F95B900005B
:1014E00000000000000000000000000000000000FC
:1014F00000000000000095B1916095B90000000067
:101500000000000095B19E7F95B90000000000002A
:1015100000000000000000000000000000000000CB
:10152000000095B1916095B9000000000000000036
:1015300095B19E7F95B900000000000000000000FA
:10154000000000000000000000000000000095B155
:10155000916095B9000000000000000095B19E7FE9
:1015600095B900000000000000000000000000002D
:101570000000000000000000000095B1916095B9E6
:10158000000000000000000095B19E7F95B90000AA
:10159000000000000000000000000000000000004B
:1015A00000000000000095B1916095B900000000B6
:1015B0000000000095B19E7F95B90000000000007A
:1015C000000000000000000000000000000000001B
:1015D000000095B1916095B9000000000000000086
:1015E00095B19E7F95B9000000000000000000004A
:1015F000000000000000000000000000000095B1A5
:10160000916095B9000000000000000095B19E7F38
:1016100095B900000000000000000000000000007C
:101620000000000000000000000095B1916095B935
:10163000000000000000000095B19E7F95B90000F9
:10164000000000000000000000000000000000009A
:1016500000000000000010C295B1916095B9000033
:1016600000000000000095B19E7F95B900000000C9
:10167000000000000000000000000000000000006A
:101680000000000095B1916095B9000000000000D5
:10169000000095B19E7F95B9000000000000000099
:1016A000000000000000000000000000000000003A
:1016B00095B1916095B9000000000000000095B15F
:1016C0009E7F95B9000000000000000000000000AF
:1016D00000000000000000000000000095B19160D3
:1016E00095B9000000000000000095B19E7F95B9FB
:1016F00000000000000000000000000000000000EA
:10170000000000000000000095B1916095B9000054
:1017100000000000000095B19E7F95B90000000018
:1017200000000000000000000000000000000000B9
:101730000000000095B1916095B900000000000024
:10174000000095B19E7F95B90000000000000000E8
:101750000000000000000000000000000000000089
:1017600095B1916095B9000000000000000095B1AE
:101770009E7F95B9000000000000000000000000FE
:1017800000000000000000000000000095B1916022
:1017900095B9000000000000000095B19E7F95B94A
:1017A0000000000000000000000000000000000039
:1017B000000000000000000095B1916095B90000A4
:1017C00000000000000095B19E7F95B90000000068
:1017D0000000000000000000000000000000000009
:1017E0000000000095B1916095B900000000000074
:1017F000000095B19E7F95B9000000000000000038
:1018000000000000000000000000000000000000D8
:1018100095B1916095B9000000000000000095B1FD
:101820009E7F95B90000000000000000000000004D
:1018300000000000000000000000000095B1916071
:1018400095B9000000000000000095B19E7F95B999
:101850000000000000000000000000000000000088
:10186000000000000000000095B1916095B90000F3
:1018700000000000000095B19E7F95B900000000B7
:101880000000000000000000000000000000000058
:101890000000000095B1916095B9000000000000C3
:1018A000000095B19E7F95B9000000000000000087
:1018B0000000000000000000000000000000000028
:1018C00095B1916095B9000000000000000095B14D
:1018D0009E7F95B90000000000000000000000009D
:1018E00000000000000000000000000095B19160C1
:1018F00095B9000000000000000095B19E7F95B9E9
:1019000000000000000000000000000000000000D7
:10191000000000000000000095B1916095B9000042
:1019200000000000000095B19E7F95B90000000006
:1019300000000000000000000000000000000000A7
:101940000000000095B1916095B900000000000012
:10195000000095B19E7F95B90000000000000000D6
:101960000000000000000000000000000000000077
:1019700095B1916095B9000000000000000095B19C
:101980009E7F95B9000000000000000000000000EC
:1019900000000000000000000000000095B1916010
:1019A00095B9000000000000000095B19E7F95B938
:1019B0000000000000000000000000000000000027
:1019C000000000000000000095B1916095B9000092
:1019D00000000000000095B19E7F95B90000000056
:1019E00000000000000000000000000000000000F7
:1019F0000000000095B1916095B900000000000062
:101A0000000095B19E7F95B9000000000000000025
:101A100000000000000000000000000000000000C6
:101A200095B1916095B9000000000000000095B1EB
:101A30009E7F95B90000000000000000000000003B
:101A400000000000000000000000000095B191605F
:101A500095B9000000000000000095B19E7F95B987
:101A60000000000000000000000000000000000076
:101A700000000000000000008F5F01C080E088309F
:101A800008F4CECB8091000181508093000188231F
:101A90001CF487E08093000108950E949202D1E037
:101AA000C1E00E949E02CA3021F40E94D102C1E02E
:101AB00001C0CF5FDF3021F40E94FC02D1E001C001
:101AC000DF5F8FE39CE90197F1F700C00000E9CFE9
:041AD000F894FFCFB8
:041AD4000701010104
:00000001FF
