S01300005450315F477275706F32302E737265636E
S11300000C9434000C9451000C9451000C94510045
S11300100C9451000C9451000C9451000C94510018
S11300200C9451000C9451000C9451000C94510008
S11300300C9451000C9451000C9451000C945100F8
S11300400C9451000C9451000C9451000C945100E8
S11300500C9451000C9451000C9451000C945100D8
S11300600C9451000C94510011241FBECFEFD8E022
S1130070DEBFCDBF11E0A0E0B1E0EAEAF1E002C0EA
S113008005900D92A430B107D9F721E0A4E0B1E0C6
S113009001C01D92A730B207E1F70E94BA000C9488
S11300A0D3000C9400008FEF8AB984B1816084B9C5
S11300B087B18C7F87B988B1836088B9089596B178
S11300C081E0292F217090FF80E09091010191112E
S11300D00EC0222361F091E020910601211190E0ED
S11300E090930601913019F49FEF9093020180934D
S11300F0010196B181E0292F227091FF80E0909157
S11301000001911109C0222339F091E020910401EA
S1130110211190E09093040180930001089581E0FF
S113012090E00090050102C0880F991F0A94E2F73D
S11301308BB98091060181110AC0809105018F5FFE
S1130140809305018830ACF01092050108959091D8
S1130150050180910201890F80930501873024F005
S11301608FEF80930201089518161CF081E08093AC
S1130170020108950E945300D1E0C1E00E945F0093
S1130180CA3021F40E948F00C1E001C0CF5FDF308C
S113019011F0DF5F01C0D1E08FE39CE90197F1F733
S10D01A000C00000EBCFF894FFCF7D
S10701AA010101004A
S9030000FC
